:020000040800F2
:100000007837002099010008196C0008455C000849
:10001000D5650008711F000821A600080000000037
:1000200000000000000000000000000001010008C6
:10003000292800080000000045010008F587000895
:10004000B3010008B3010008B3010008B3010008C0
:10005000B3010008B3010008B30100082B28000811
:10006000B3010008B3010008B3010008F12700083C
:10007000B3010008B3010008B3010008B301000890
:10008000B3010008B3010008BD0A00089DA50008DF
:10009000A9A50008B3010008B3010008B3010008D6
:1000A000B3010008AD880008B3010008B3010008DF
:1000B000B9880008D9880008B3010008B301000816
:1000C000B3010008B3010008B3010008C5830008AC
:1000D000D1830008B3010008B3010008B301000890
:1000E000B3010008B3010008B3010008DFF80CD029
:1000F00000F0A6FC00480047ADAD000878370020AE
:10010000224B19680868B0E8F00F80F30988BFF344
:100110006F8F4FF0000080F311884EF00D0E704786
:100120000000000006480068006880F3088862B696
:1001300061B6BFF34F8FBFF36F8F00DF00BF00BF0B
:1001400008ED00E0EFF30980BFF36F8F0F4B1A68E3
:1001500020E9F00F106008B54FF0500080F31188CF
:10016000BFF34F8FBFF36F8F0BF00CFD4FF000000C
:1001700080F31188BDE8084019680868B0E8F00FFE
:1001800080F30988BFF36F8F704700BF840400209D
:10019000EFF3058070470000064880470648004797
:1001A000FEE7FEE7FEE7FEE7FEE7FEE7FEE7FEE727
:1001B000FEE7FEE7AB880008ED0000082DE9F05FE0
:1001C0000546002092469B468846064681464024C6
:1001D0001BE0284641464746224600F020F8534699
:1001E0005A46C01A914110D311461846224600F0D3
:1001F00071FB2D1A67EB01084F46224601200021B2
:1002000000F068FB17EB00094E41201EA4F1010429
:10021000DFDC484631462A464346BDE8F09F202AA7
:1002200004DB203A21FA02F00021704721FA02F3A0
:10023000D040C2F12002914008431946704740EA7D
:1002400001039B0703D009E008C9121F08C0042A54
:10025000FAD203E011F8013B00F8013B521EF9D23B
:100260007047D2B201E000F8012B491EFBD2704763
:100270000022F6E710B513460A4604461946FFF772
:10028000F0FF204610BDF0B480EA0102D40F420016
:10029000B2EB410F02D20246084611464A0042D054
:1002A000C30DDDB2C1F3C752AD1A202D35DAC1F34B
:1002B000160141F4000204B15242C5F1200602FACF
:1002C00006F12A411044B3EBD05F23D0C4B1012D15
:1002D000A0EBC35009DCF0BC4FF0004202EAC3526D
:1002E000DBB200F5000000F01FBB400000F18070A1
:1002F00000EBC350A0F1807040EAD170490009E0E2
:10030000490841EAC071A0EBC35000F50000400865
:1003100000EBC350F0BC00F0FEBA6142012202EBD8
:100320004101001BF6E7F0BC704781F00041AAE7ED
:1003300080F00040A7E780EA010210B502F0004318
:10034000400022D04A001FD0010E01EB1261C0F321
:100350005600C2F3560240F4000042F40002A0FB33
:10036000022000047F39140400D0401C50EA1240DF
:1003700001D44000491EC2B20C0604EBD010401C50
:100380004008802A02D003E0002010BD20F00100C8
:10039000002900DA0020184310BD30B480EA0102C1
:1003A00002F0004530F0004221F0004013D090B13F
:1003B000C30DD40DC2F31601C0F31600E41A41F4C4
:1003C000000140F400027D34914201D3641C00E03E
:1003D0004900002C02DA30BC002070474FF40000C6
:1003E0000023914201D3891A034340084FEA410197
:1003F000F7D151B1914202D14FF0004105E002D254
:100400004FF0010101E06FF0010103EBC4502844FB
:1004100030BC00F080BA2DE9FE4F804681EA03002F
:10042000C00F0C46009021F0004123F00045B8EBCE
:100430000200A94105D24046214690461C460B4683
:10044000024623F00040104347D0270DC7F30A00AF
:10045000C3F30A510290401A019040286BDAC3F3AB
:10046000130040F4801B0098924620B10023D2EB89
:10047000030A63EB0B0B01985946C0F1400250464A
:1004800000F028FA06460D4650465946019A00F0FB
:1004900030FA10EB08006141002487EA115284EA27
:1004A000E7731A4340D0009A62B3019A012A4FEAD7
:1004B000075215DC001B61EB02014FF0004202EA1B
:1004C0000752CDE90042001C41F5801132462B460F
:1004D00000F067FA03B0BDE8F08F40462146F9E727
:1004E000001B61EB0201001C41F5801300185B4109
:1004F0002018A2F5001747EB030140EAD570B619A2
:100500006D4111E06D084FEA360645EAC0754FEAC5
:100510000752001B61EB0201001C41F580114908E4
:100520004FEA30000019514132462B4603B0BDE876
:10053000F04F00F027BA0098012240000023D0EBD2
:10054000020263EBE073009821464FEAE074B8EBD7
:10055000000061EB0401E9E783F000435BE781F011
:10056000004158E72DE9FE4F81EA030404F00044FE
:1005700021F0004100944FF0000B23F0004350EABB
:1005800001045ED052EA03045BD0C3F30A54C1F302
:100590000A552C44A4F2F3340194A0FB0254C1F395
:1005A000130141F48011C3F3130343F4801301FBDF
:1005B000024400FB034E840A970A44EA815447EA46
:1005C0008357A4FB076802958D0A05FB07854FEA50
:1005D000932C04FB0C542705029D4FEA065847EA6A
:1005E0001637B5EB08056EEB070C870E920E47EA3F
:1005F000811742EA8312A7FB0201B6EB0B0164EB01
:1006000000042B0D43EA0C335E1844EB1C50DA4611
:100610005146E7FB0201C5F313044FEA0B3343EAEB
:1006200014534FEA0432019C43EA0603A4F10C047C
:100630000294009CCDE900B400F0B3F903B0BDE82A
:10064000F08F00200146F9E72DE9F04D81EA03041F
:1006500004F0004B21F0004514464FF0000A23F04F
:10066000004150EA050220D054EA01021DD0C5F332
:100670000A570246C5F31303C1F31300C1F30A5628
:1006800040F4801543F48013A7EB0608101BD646F0
:1006900008F2FD3873EB050002D308F1010801E010
:1006A00092185B41B8F1000F03DA00200146BDE863
:1006B000F08D00204FF48011064684460EE0171B93
:1006C00073EB050705D3121B63EB050306434CEAE6
:1006D000010C49084FEA300092185B4150EA0107CB
:1006E000EDD152EA030012D082EA040083EA050148
:1006F000084305D0101BAB4106D20122002306E0BF
:1007000000224FF0004302E06FF0010253101AEB99
:1007100006004CEB085110EB0A0041EB0B01BDE861
:10072000F04D00F02FB996230022114600F0FCB8DE
:100730000EB540F2334102910021CDE900110A4685
:100740000B4600F02EF903B000BD0EB540F2334267
:1007500002920022CDE90022134600F022F903B0F4
:1007600000BD20F00040C10DC0F3160040F40000B1
:100770007F2901DA00207047962903DCC1F1960138
:10078000C8407047963988407047C1F30A5210B587
:10079000C1F3130140F2FF3341F480119A4201DAB0
:1007A000002010BD40F233439A42A2F2334203DCF0
:1007B0005242FFF734FD10BD904010BDC1F30A5204
:1007C000C1F3130140F2FF3341F480119A4202DA7F
:1007D00000200146704740F233439A42A2F233426E
:1007E00002DC5242FFF71BBD00F074B800F000427B
:1007F00030F000400AD0C10D01F56071C0F3160061
:1008000042EA0151C20840071143704700200146E7
:100810007047000030B5041E71F1000404DB4FF096
:100820000044404264EB0101141E73F1000405DB37
:100830001C464FF00043524263EB04038B4208BF57
:10084000824230BD30B5041E71F1000404DB4FF06C
:100850000044404264EB0101141E73F1000405DB07
:100860001C464FF00043524263EB0403994208BF19
:10087000904230BD01F0004330B421F0004150EA15
:10088000010206D00A0DA2F56072C1F31301002A1D
:1008900002DC30BC00207047440F44EAC104C100B0
:1008A000E01830BC00EBC25000F035B8002801DB86
:1008B000C0F10040002901DBC1F1004181427047D5
:1008C000002801DBC0F10040002901DBC1F100413B
:1008D00088427047202A04DB203A00FA02F1002007
:1008E00070479140C2F1200320FA03F3194390406E
:1008F0007047202A06DBCB17203A41FA02F043EA80
:10090000E07306E041FA02F3D040C2F120029140C8
:100910000843194670470029A8BF7047401C49008A
:1009200008BF20F00100704710B4B0FA80FC00FA54
:100930000CF050EA010404BF10BC704749B1CCF17F
:10094000200421FA04F411FA0CF118BF012121430B
:100950000843A3EB0C01CB1D4FEA00614FEA1020C6
:1009600042BF002010BC704700EBC3501044002968
:10097000A4BF10BC7047401C490008BF20F0010014
:1009800010BC704710B5141E73F1000408DA401C47
:1009900041F1000192185B411A4301D120F001009E
:1009A00010BD2DE9F04D92469B4611B1B1FA81F28E
:1009B00002E0B0FA80F220329046FFF78BFF044647
:1009C0000F4640EA0A0041EA0B0153465A460843E3
:1009D00013D0114653EA010019D0C8F14002504625
:1009E000FFF71DFC05460E46504659464246FFF7A6
:1009F00071FF084305D0012004E020463946BDE8D8
:100A0000F08D0020054346EAE0762C4337430A98F0
:100A10006305E40AA0EB08000022FD0A44EA4754FB
:100A20000A3002D500200146E9E7010510196941A5
:100A3000DDE9084500196941BDE8F04DA2E7000075
:100A4000064C074D06E0E06840F0010394E807001B
:100A500098471034AC42F6D3FFF74CFB64C600084D
:100A600084C6000870B58C1810F8015B15F00703F8
:100A700001D110F8013B2A1106D110F8012B03E037
:100A800010F8016B01F8016B5B1EF9D12B0705D43F
:100A90000023521E0DD401F8013BFAE710F8013B88
:100AA000CB1A921C03E013F8015B01F8015B521EA4
:100AB000F9D5A142D8D3002070BD0000014802F052
:100AC000B3B800001006002070B51D4C608D1D4DA0
:100AD0002861411C28D058B3002084F84500608D5F
:100AE000FFF721FE1849FFF726FC1849FFF723FC02
:100AF000A16BFFF7C8FBE860FFF778FE012206F064
:100B00003BF8FFF7B7FEE86010F1FF4F14D2104931
:100B1000884211DA2063206B0E4A0F4905F0E2FD8E
:100B2000FFF701FE206470BD022084F8450070BD0F
:100B3000012084F8450070BD032084F8450070BD95
:100B4000F0090020980000203333533A0AD783403D
:100B500000006041333347410000284170B51C4C10
:100B6000208D1C4DA860411C25D040B3002084F886
:100B70004400208DFFF7D7FD1749FFF7DCFB616BC1
:100B8000FFF781FB6860FFF731FE012205F0F4FFFB
:100B9000FFF770FE686010F1FF4F14D20F498842D2
:100BA00011DAE062E06A0E4A0E4905F09BFDFFF79C
:100BB000BAFDE06370BD022084F8440070BD0120DE
:100BC00084F8440070BD032084F8440070BD000028
:100BD000F0090020980000203333533A0000A04071
:100BE000CDCC4C403333F33F70B504462068816868
:100BF000C943C90716D1816821F00101816002F063
:100C00009DFD054609E002F099FD401B022804D92C
:100C100020688068C043C00706D020688068C04351
:100C2000C007F0D0002070BDA06A40F01000A062A4
:100C3000E06A40F00100E062012070BD10B501469D
:100C4000486A826A12F0500F05D0006A026BBDE854
:100C5000104008461047816A41F4007181620168C2
:100C60008968C1F3424107290CD1017B51B9816ADE
:100C700021F480718162816AC90403D4816A41F0E0
:100C80000101816201F0C4FF10BD10B5406A816AA4
:100C900041F040018162C16A41F00401C16201F08A
:100CA000C2FF10BD10B5406A01F0BCFF10BD0000CE
:100CB000F8B504460026009620688168C943C90734
:100CC0002FD0816841F00101816017481749006801
:100CD000B0FBF1F0009002E00098401E00900098F8
:100CE0000028F9D102F02AFD054615E002F026FDA4
:100CF000401B022810D920688068C043C0070BD071
:100D0000A06A40F01000A062E06A40F00100E062DA
:100D100084F824600120F8BD20688068C043C007C3
:100D2000E4D10020F8BD00008004002040420F0004
:100D30002DE9F041214D28790026002806D02868A9
:100D4000022205F1100102F0BFF82E716879002827
:100D500031D0002005EBC0018B69CA6905EB800426
:100D600024691B1972418B61CA61401CC0B2022800
:100D7000F0D3A889401CA881A889E9890127884265
:100D800017D10024EA8905EBC4018869C9690023E9
:100D9000FFF714FA05EB44010885641CE4B2022C49
:100DA000F0D3FFF7DBFEFFF78FFE00F053F8EF7193
:100DB00000E02F716E71BDE8F0810000F0090020A5
:100DC0000848C17900290BD00189491C018101899A
:100DD0004289914204D10121017100210181C17137
:100DE00070470000F009002030B418490860002363
:100DF0000B714B718B710120C8710B814FF47A70AC
:100E000048818B814010C881CB620B63CB630B643C
:100E10004FF07D5048630E48886381F8443081F874
:100E20004530002001EB8002136101EBC002002578
:100E30009561D56101EB40021385401CC0B20228C8
:100E4000F0D3086830BC01F0E3BD0000F0090020D9
:100E5000CDCCCCBD10B50020074A002402EBC00168
:100E60008C61CC61401CC0B20228F6D30020908176
:100E70005071107110BD0000F009002070B50C4CCD
:100E800020680125006A90F82100012806D1206819
:100E900002F0AAF850B1FFF7DDFFE5712068806A23
:100EA000032802D1FFF7D6FFE57170BD6571F5E744
:100EB000F00900200A49C8880A4A938898420ED04F
:100EC000CB8809482BB1012383704FF4FA73C38098
:100ED00003E0002383706423C380C8889080704738
:100EE0007408002010000020600C002010B500F0F5
:100EF00007F800F099F8BDE8104000F033B90000A1
:100F00002DE9F05F0024DFF80C81DFF80C91012758
:100F1000DFF808A1424DDFF80CB1002604EBC40055
:100F20001AF82010012908D01AF82010022925D01B
:100F30001AF82010032942D060E00AEB8000C17942
:100F4000E1B38671C67104F0F1FF20B198F8020098
:100F5000022804D00DE0BDE8F05F05F051B898F824
:100F60001E00022805D10421002001F0E5F889F8CF
:100F70004560A87810BBAF702F723FE00AEB80008D
:100F8000C179D9B18671C67104F0D0FF20B198F84B
:100F90000200022804D00DE0BDE8F05F05F030B893
:100FA00098F81E00022805D10421012001F0C4F8A0
:100FB00089F84570A87808B9AF702F721EE00AEB67
:100FC0008000C179D1B18671C67104F0AFFFD8B18C
:100FD0006878E8B100206870687820B1A87810B10E
:100FE000002000F0A7FF9BF80000052806D29BF820
:100FF00000008BF8010008208BF80000641CE4B2AC
:10100000032C8BD3BDE8F09FBDE8F05F04F0F8BF80
:101010000120E0E7EC0C002074080020800C002088
:10102000600C0020240000202DE9F041274C60884E
:10103000274E7188884201D1A08890B325488178D5
:10104000022940D1807F02283DD1002000250127C0
:10105000228807FA00F10A420ED0A2880A420BD079
:1010600004EB4002558122890A432281E2888A43A7
:10107000E280A2888A43A280401CC0B20628E7D33F
:10108000608818B194F8450060B111E094F845000B
:1010900001280DD10421002001F04EF884F84550BC
:1010A00006E00CE00421012001F046F884F84570C8
:1010B000608800B101200849887060887080BDE8B0
:1010C000F041FFF7F7BEBDE8F08100007408002092
:1010D00010000020EC0C0020600C002070B50020F7
:1010E000114B01251A8805FA00F10A4217D01A8916
:1010F0000A4214D003EB40025489641C5481548981
:10110000A4F51C56103E0AD1D48A641CD482002453
:101110005481DA880A43DA801A898A431A81401C8A
:10112000C0B20628DED370BD7408002010B50C498B
:1011300001240C8000224A808A80CA800C81002011
:1011400001EB40035A81401CC0B20628F8D301F8D5
:10115000404F4C708A70CA700A714A7110BD00000D
:10116000740800202DE9F0473A4C94F8400000281C
:101170005DD0394EDFF8E490002530784FF001085B
:10118000B71D20BB99F8060094F8441088421ED180
:1011900099F8050094F84310884218D199F8040092
:1011A00094F84210884212D10421002000F0C4FFBC
:1011B00041342571B4F80100F080E078307278781D
:1011C00014F841190844787086F8008075703078FA
:1011D00000282CD099F80600B978884227D199F8D0
:1011E00005007978884222D199F80400397888423C
:1011F0001DD17078401CC0B2707094F840108142CC
:1012000020D3C00706D00421012000F095FF84F808
:10121000458005E00421002000F08EFF84F8455051
:1012200078783B2805D094F8411008447870BDE8E0
:10123000F0873878172803D0401C38707D70F6E7A7
:101240003D70FBE70421012000F076FF84F8458023
:101250003570ECE77408002010000020380A0020E8
:10126000F0B41C4E0578357044787470002D09D0A8
:10127000C3EB0316184F06EBC60607EB8606767A15
:10128000AE4205D0002D23D1062C01D0102C1FD149
:10129000082C14D004DC032C0BD0062C04D10BE05A
:1012A000102C0FD0112C10D0F0BC0121184600F0EA
:1012B000CFBAF0BC00F0BAB9F0BC00F01BBBF0BC78
:1012C00000F00EB8F0BC00F0A9BBF0BC00F080B993
:1012D000F0BC7047F4000020440A00200020704752
:1012E00070B505460C461E46082A05D03046BDE8B6
:1012F0007040032100F0ACBA0020295C2154401C4E
:101300000628FADBC6EB0610094A00EBC00002EB28
:101310008000072180F81A120621204604F008FFF9
:10132000A0713046BDE87040002100F091BA000085
:10133000440A0020044900EB800001EB8000807A21
:10134000C0F30000704700000401002070B50024C5
:101350000D4D204600F01AF8C4EB041000EBC0005D
:1013600005EB8000C17A032908D1807A022805D1D3
:10137000204600F099F8204600F012FA641CE4B20E
:10138000002CE6D070BD0000440A002070B5C0EB10
:10139000001101EBC102134901EB8204A17A00297B
:1013A0000CD0A17A022909D0A17A0226012906D0FF
:1013B000A17A042911D00320E072A67270BD217AAF
:1013C000012908D1227C04F11C05034604F21B11FB
:1013D0002846FFF745FFA67270BD082100F038FAD5
:1013E000EBE70000440A002070B50025104EC5EB65
:1013F000051000EBC00006EB8004A07B50B1608AB2
:10140000401C6082608AB0F5FA7F0BD1284600F05C
:101410004BF807E0E07A012804D100F0B1FD08B9EB
:101420000320E0726D1CEDB2002DE0D070BD000015
:10143000440A00200349002008800C3908814881B3
:1014400070470000000100203FB5DDE907340028A7
:1014500002D0012004B030BDF2B1FBB104B39DF85D
:10146000045010480021057042609DF80C20027263
:1014700001224272436184618172C17201734273BD
:101480008173C27301744174418280F81A1232214F
:1014900080F81B120020DDE70220DBE70220D9E7FD
:1014A0000220D7E7440A0020C0EB00100A4A00EBF4
:1014B000C00012F820300021012B04D102EB800380
:1014C0005B68C3F80C1202EB800041820174417426
:1014D000C173817341737047440A0020C0EB00114F
:1014E000044A01EBC10112F82110012901D100F0D9
:1014F00003B87047440A00202DE9F0410646C6EBC8
:101500000611314801EBC10100EB81046568E07B05
:10151000002824D0D5F80C024FF0010850B1A07B70
:1015200040B9606900783A2802D00720A07201E033
:1015300084F80E80A07B90B1A07A01280FD060695A
:10154000D5F80C12084410F8010C0A2805D160697E
:10155000084410F8020C0D280CD00820A072A07AC4
:1015600002282FD93046FFF79FFF3046BDE8F041F3
:1015700000F016B9C9B2606904F0E9FD134F387084
:101580006069D5F80C1201220844001F791C05F08F
:1015900089F838787978884211D184F80A80B5F8CA
:1015A0000C02C01E4008207495F80C0204F11C01C6
:1015B000C01EC2B26069401C05F074F8CFE7042079
:1015C000A072CCE7BDE8F081440A0020F0000020C2
:1015D00070B50C461D46042A05D02846BDE870406B
:1015E000032100F035B90178217040786070042043
:1015F000A0700020E070012121716071C5EB051021
:10160000094A00EBC00002EB8000072180F81A12A3
:101610000621204604F08CFDA0712846BDE87040EC
:10162000002100F015B90000440A00202DE9FF4F09
:1016300081B00F46072A06D0049805B00321BDE803
:10164000F04F00F005B94179027941EA02284FF6DE
:10165000FF7101EA48020092C178827841EA0221D2
:101660004FF0000A02783A7040787870009ABA70A9
:101670000024DFF824B104EB84003BF8200088420A
:101680007DD1B8F1000F02D00026B14651E0049898
:1016900005B00321BDE8F04F00F0DAB809EB040013
:1016A00082B2D0B2FFF746FEF0B302EB82000BEB42
:1016B000800292F808C00AEB0C001FFA80FAC245BB
:1016C00006D9049805B00321BDE8F04F00F0C0B87A
:1016D000107CC00706D00021B819C1705168097884
:1016E00001711CE000250020117A491ECBB214E0E4
:1016F000516831F813104FEA112E7119394481F8ED
:1017000003E0D2F804E01EF813E081F804E0AD1C19
:10171000EDB2401CC0B25B1EDBB26045E8D3107A6C
:1017200006EB400086B200E022E009F101091FFA51
:1017300089F9C245B2D304980099C0EB001000EBC0
:10174000C0021648091D00EB820404F21A2421701D
:101750002078401EC1B2384604F0EAFC21787F1E92
:10176000C855049805B00021BDE8F04F00F070B8EE
:10177000049805B00221BDE8F04F00F069B8641C80
:10178000A4B2232CFFF477AF049805B00221BDE882
:10179000F04F00F05DB8000004010020440A002072
:1017A000C0EB0010064900EBC00011F8202001EB4F
:1017B0008000002242730121C173827270470000D1
:1017C000440A002030B5144C00EB800204EB820088
:1017D000437A012B1AD1037CDD07A4F1100316D044
:1017E00040680088000AD880D88888420ED034F833
:1017F000220003280AD10948C38F48F2C402934249
:1018000004D1914202D0012180F8401030BD4068DF
:101810000088D880E8E7000004010020240D0020A3
:10182000002100EB8002094800EB8200027CD30714
:10183000064AA2F1100205D040680088000A908094
:1018400008467047406800889080F9E7040100204E
:1018500070B5C0EB0012254B02EBC20203EB820411
:10186000257F002D41D013F82220012A3DD1E272BC
:10187000A3693A221A70C0EB00101C4A00EBC000AA
:1018800002EB800505F21B15A9B1042084F81A02A9
:10189000207F84F81B01607F40F0800084F81C01E9
:1018A00084F81D1194F81A02401EC1B2284604F0B3
:1018B0003FFC84F81E0194F81A22A1692846491CAD
:1018C00004F090FE94F81A0241000948C91C4180B6
:1018D000A3690D22881E1A54A3690A22481E1A54AD
:1018E000A069BDE8704000F081BB70BD440A0020D3
:1018F000F00000202DE9F047054688469946072A62
:1019000005D04846BDE8F0470321FFF7A1BFE878BE
:10191000A97840EA012100243E4804EB840230F813
:1019200022208A4269D104EB840100EB8106307ADF
:10193000012805D94846BDE8F0470321FFF788BFD5
:10194000E0B2FFF7F7FCE8B3707A012805D048460B
:10195000BDE8F0470321FFF77BBF307CC00701D013
:101960006F7903E06879297940EA0127B089B842A4
:1019700037D8F089B84234D339462046FFF722FFE2
:1019800039462046FFF74CFF40B9307CC00703D0F2
:101990007168F8B2088001E0706807800020295C57
:1019A00008F80010401C80B20628F8D3C9EB0910D3
:1019B000194A00EBC00002EB8000072180F81A12E0
:1019C000062100E013E0404604F0B2FB88F8060070
:1019D000287800281BD04846BDE8F0470021FFF7D3
:1019E00037BF4846BDE8F0470321FFF731BF4846FF
:1019F000BDE8F0470221FFF72BBF641CA4B2232CE3
:101A00008BD34846BDE8F0470221FFF721BFBDE870
:101A1000F087000004010020440A00202DE9FF4F58
:101A200085B00546FF2A71D26879297940EA0120FC
:101A30000490E878A97840EA01204FF0000AD046E7
:101A4000764908EB880231F8221081427ED1049851
:101A500010B10026B146A0E0089809B00321BDE806
:101A6000F04FFFF7F5BE09EB080080B20390039832
:101A700000EB8001694800EB8104237AF01D82B2FB
:101A800029460398FFF72AFC30B1089809B00321D2
:101A9000BDE8F04FFFF7DCBE0398C0B2FFF74AFC89
:101AA00080B10AEB03001FFA80FA0498824502D83D
:101AB000607A01280DD0089809B00321BDE8F04FE5
:101AC000FFF7C6BE089809B00221BDE8F04FFFF746
:101AD000BFBE207A40064FEA106B002001900290B2
:101AE000002708E0331801AA2B44115CDB79194365
:101AF0001154401CC0B25845F4D3207A012818D1A3
:101B0000207CC00703D0A819077A05E07BE0A8195C
:101B1000017AC07941EA0027A089B84202D8E08959
:101B2000B84206D2089809B00321BDE8F04FFFF78C
:101B30008FBE39460398FFF745FE39460398FFF7F5
:101B40006FFE18BB207CC00706D000E04CE09DF87B
:101B500005006168088019E000200021227A521EE9
:101B6000D2B201AB0FE01F1813F800C07F7847EA2C
:101B70000C27D4F804C02CF81270801CC0B2491C89
:101B8000C9B2521ED2B2277A8F42ECD806EB0B00B4
:101B900086B209F101091FFA89F904988245FFF418
:101BA00062AF002006992A5C0A54401C80B20628C5
:101BB000F8D308981A4AC0EB001000EBC00002EB03
:101BC0008000072180F81A120621069804F0B0FA66
:101BD00006998871287800281CD0089809B000213F
:101BE000BDE8F04FFFF734BE08F101081FFA88F88E
:101BF000B8F1230FFFF424AF089809B00221BDE823
:101C0000F04FFFF725BE089809B00321BDE8F04F5B
:101C1000FFF71EBE09B0BDE8F08F000004010020F0
:101C2000440A00202DE9F0410025214FA84605EB8C
:101C3000C50607EB8604E089401CE081E089218A23
:101C4000884228D1A4F80E80218BE069226A90474F
:101C500000B10120A070A078E178884203D1A07C77
:101C6000401CA07401E084F81280A07CE17C8842D2
:101C70000FD184F81280A078217B0A22394402EB2C
:101C800086028854284600F015F8207948B184F877
:101C90000480A078E0706D1CEDB2032DC7D3BDE8C1
:101CA000F081207B0228F4D2207B401C2073F0E7D7
:101CB000800C002010B500EBC0013B4800EB810018
:101CC000027B0121002A1AD1827A0AB1427812B12C
:101CD000827A22B108E00171022242720FE042785A
:101CE00012B1017141720AE0827A0AB942787AB17E
:101CF000827A22B1427812B1032242728171027B50
:101D0000012A38D1837A002273B1C37A23B10BE060
:101D1000042242728171F2E743782BB106234372A9
:101D2000C171427102731CE0837A1BB9C37A0BB193
:101D3000437843B1837A63B1C37A53B1437843B1F3
:101D4000072343720DE005234372C1714271027390
:101D500007E0837A2BB9C37A1BB943780BB9082300
:101D60004372437A082B07D0437A072B04D0838A27
:101D700003B18282017110BD037A002BFAD143793D
:101D8000002BF7D1838A5B1C8382838AC48AA34297
:101D9000F0D1828241710172427812B109224272FD
:101DA000E8E70A224272E5E7800C00202DE9F043C3
:101DB0000021274E0A270024264D274A4FF0050C04
:101DC0004FF06408012301EBC10005EB8000447073
:101DD0008471C4710472066290F80190B9F1000F29
:101DE00002D08470C47001E08370C370C4818474B5
:101DF0008482078280F813C0A0F8168021B10129DF
:101E00000AD002291DD112E0A946EA612020A9F8D2
:101E1000180089F8003014E00E4800F1240902642B
:101E20001020A9F81800022085F8240009E00948CC
:101E300000F1480942660820A9F81800032085F837
:101E40004800491CC9B20329BDD3BDE8F083000096
:101E500011370008800C0020000C014010B54FF431
:101E60000071084801F054FC074928B1087808B10E
:101E7000012010BD002010BD087808B1012010BD60
:101E8000002010BD000C0140600C002070B5154C06
:101E9000A07800281DD06078002560B9A088401C7B
:101EA000A080A088E188884205D1A5804FF4007108
:101EB0000D4801F034FC207A002809D06089401CCC
:101EC00060816089A189884202D36581A5702572ED
:101ED00070BDFFF7C3FF0028FAD0BDE870400020B6
:101EE00000F028B8600C0020000C01400D480C499F
:101EF00001614915C1810C4941610C4981610C495D
:101F0000C1610121017041700021817081806422D2
:101F1000C2800172418142F21071818170470000DC
:101F2000000C0140600C0020113700082F3700081A
:101F30001F3700080D4A00280BD0107820B1D18936
:101F40001069936901221847D189106993690022A9
:101F50001847107820B1D189106993690022184779
:101F6000D18910699369012218470000600C002094
:101F700004220721014802F0E1FFFEE7D806002015
:101F80000548D0F8B802D0F81402002801D001208A
:101F900070470020704700006C0D002004284FF0AF
:101FA000000070470020704710B500220549064820
:101FB00006F018FE03490448803906F00DFE0020A3
:101FC00010BD0000F01000206C0D002010B504467C
:101FD0000020FFF783FA2146034806F0FDFD024882
:101FE00006F0D9FD002010BD6C0D002010B50A468A
:101FF0000849D1F8B812D1F81412002901D00120F3
:1020000010BD0146034806F0EDFDBDE81040014853
:1020100006F062BE6C0D0020704700002DE9F04113
:102020000025224F0026C5EBC50007EB8004A078F1
:10203000032803D0A07804280DD030E0A088401CED
:10204000A080A088E188884229D1A680A17828466E
:1020500000F072F823E0A088401CA080A088A0F5C2
:102060001C5110391BD1A6802189E068A2699047D4
:102070002189E0682269904720B1607800B1012091
:10208000E07003E0607830B10020E070E07820B1CB
:102090000120A07003E00120F7E70220A0706D1C72
:1020A000EDB2022DBFD3BDE8F0810000EC0C0020A2
:1020B0002DE9F05F0024DFF86C80DFF86C90DFF82A
:1020C0006CA01B4E1B4D4FF0010B0027C4EBC4004E
:1020D00006EB80003146C0F81080C0F81490C0F8BC
:1020E00018A080F801B087804FF4FA72C28014B152
:1020F000012C0CD104E0CD604FF48060088106E033
:102100000B4800F11C0185624FF400600881022138
:10211000204600F011F8641CE4B2022CD6D3BDE8CE
:10212000F09F0000113700082F3700081F37000804
:10213000EC0C0020000C014073B59DF804202B49E5
:1021400000260125C0EBC00001EB8004012A0CD061
:102150009DF8040002281CD09DF8040003282CD010
:102160009DF80400042828D039E0607840B1E07878
:1021700010BB2189E068636901229847E5702EE071
:10218000E078C8B12189E068636900229847E67069
:1021900025E0607840B1E07870B12189E06863693A
:1021A00000229847E6701AE0E07828B92189E068B3
:1021B000636901229847E57011E02189E068A2690E
:1021C00090472189E0682269904720B1607800B18A
:1021D0000120E07003E0607828B10020E0709DF8F5
:1021E0000400A0707CBD0120F8E70000EC0C00208A
:1021F00070B50B480088093085B20024084E3C3E7B
:1022000004EB440006EB80004581007A04F094FC66
:102210002844C01C85B2641CA4B2052CF0D370BD48
:10222000FC03002070B50D4D0020A860A868001DBB
:10223000A860A868401CA860A868001DA8600024C9
:10224000204600F00DF8A9680844A860641CA4B2F8
:10225000052CF5D3A868001DA86070BDFC03002004
:1022600010B5054900EB400001EB8000007A04F056
:1022700063FCC01CC0B210BDC0030020064890F82B
:102280004010002906D0002180F840104FF21702BC
:102290000287818500F0C0B9240D00200948018F14
:1022A000A1F57042173A0CD1818D491C8185818D31
:1022B000C28D914205D100218185018747F20F111E
:1022C00041877047240D002010B5214C002020705C
:1022D0004FF4803161614900A161A070E07020710C
:1022E00060706071A071E07120626062A06284F829
:1022F00030004FF47A71618684F83400E0862087DC
:102300006087E08784F8400084F84100A085E1857B
:1023100084F83C00032184F83D10A4F842003220E8
:10232000A4F84400FFF764FFFFF77CFF00F014F807
:10233000207821280BD00748017841F00201017074
:102340002178112903D0017841F00401017010BDFA
:10235000240D0020000100202DE9F04FC3B0DFF86C
:10236000A4A20020AAF81000DFF89CB28BF80200AB
:102370008BF8030021208BF80000BAF80000CAF89F
:102380000C004FF00908DAF80C00424601A900F0F1
:10239000EFFA0025002600240022042101A800F005
:1023A00017FA9DF80810814276D1002874D00020D9
:1023B000002101AF06E03A5C8A401443401CC0B2E1
:1023C0000831C9B24045F6D30020002107E03A1891
:1023D00052798A401543401CC0B20831C9B2042862
:1023E000F5D3AAF81040002D7ED0884885427CD1D4
:1023F0000422DAF80C10201F0844CAF80C00DAF89E
:102400000C00C00701D0012500E00025DAF80C001F
:1024100001A9401B00F0ACFAE8B200212D1D07E035
:1024200001AA125C8A401643401CC0B20831C9B2EE
:10243000A842F5D37648864205D00F208BF80000DD
:1024400043B0BDE8F08FDAF80800A04202D01020B7
:102450008BF8000000200090BAF810000938AAF8A4
:102460001000BAF81000001FAAF81000BAF8000017
:102470000930CAF80C00B2E0BAF81000FF2802D9FF
:102480004FF4807601E0BAF810600098052804D374
:1024900009208BF80000D3E7AFE0DAF80C00C007A2
:1024A00001D0012400E00024DAF80C003246001BC1
:1024B00001A900F05DFA00250027301941907EE067
:1024C000281DB0427ED801A8015D2044407841EA31
:1024D00000290020052816D0DAF8141000EB40027D
:1024E00031F82210494501E083E07EE00FD1DAF8AF
:1024F000141000EB4000082202EB8000085C04F09E
:102500001BFB074607E013208BF8000098E7401CF0
:1025100080B20528DED3F81C00F0FF0805EB0800A8
:102520004290B04251D8E2B2414601A800F050F9C1
:102530000346429885B200204FF0070CDAF81420C9
:1025400000EB400132F821204A4528D104EB080075
:1025500001AA104410F8010C984217D1002004235E
:1025600003EB81010AE023181344DAF814C09B78C6
:102570005CF801C00CF80030401CC0B2B842F2D385
:102580009BF80200401C8BF8020015E021480178FE
:1025900041F00401017014208BF8000050E7052879
:1025A00006D18BF800C09BF80310491C8BF8031070
:1025B000401C80B20528C1D304EB080084B24198C6
:1025C000A04200E001E03FF67BAFBAF81000401BEC
:1025D000AAF81000DAF80C002844CAF80C00BAF87F
:1025E000100000287FF448AF2AE70E208BF8000087
:1025F00026E712208BF8000022E711208BF800005C
:102600001EE70000FC030020240D00207856341241
:1026100021436587000100202DE9F04FC1B06748D4
:10262000418FA1F5E2420F3A0FD1654A53881188D4
:102630009468591A0023A1420AD80D2101706149FA
:102640000A7842F001020A70438741B0BDE8F08F7A
:102650005A4800210171202101701088D0600424A3
:102660000020002101AE07E0554A9268CA4032546A
:10267000401C80B2083189B2A042F5D3E1B20022F9
:1026800001A800F0A5F83055002000214E4B08E0CD
:1026900023FA01F2251835446A70401C80B20831D3
:1026A00089B20428F4D3641DA4B24FF0000B0025B6
:1026B000434805EB45083C3800EB8800007A04F0FD
:1026C0003BFA81462846FFF7CBFD074604EB070A95
:1026D000BAF1FF0F28D83A48416931F8281031552E
:1026E000416931F82810090A321951700021042279
:1026F00002EB880209E043699B5804EB010CB444E7
:102700005B5C8CF80230491CC9B24945F3D3E2B294
:10271000F9B201A800F05CF809EB040131448870BB
:102720001FFA8AF44FF0010BE019FF2801D8042D9D
:1027300001D1042D08D0BBF1000F03D06D1CADB248
:102740004FF0000B052DB3D3002000211F4B07E0F5
:1027500023FA01F225187255401CC0B20831C9B2E3
:102760000428F5D3241DA4B2154D288800F0ECF8F8
:102770002888224601A900F011F910480178202983
:102780000FD04178491C417041780329FFF45DAFB7
:102790000021418741700B48017841F0010101702F
:1027A00053E700214187417006490A7822F001026F
:1027B0000A70816A491C816247E70000240D0020ED
:1027C000FC03002000010020785634122143658765
:1027D00010B5034600201144491E89B204E09C5CF8
:1027E0002044C0B2521C92B28A42F8D310BD0000FD
:1027F000014800F095BC00004006002030B590F87C
:1028000040500124AC40C56B6C6004686360436851
:10281000102B04D0036899600068C26030BD036863
:102820009A600068C16030BD7047022000F06CBE45
:102830007047000006490020C8610648016941F060
:1028400004010161016941F040010161704700002C
:102850008016002000200240064A0021D16106496E
:102860000A6942F002020A614861086940F04000CA
:10287000086170478016002000200240044B0022AF
:10288000DA61044A136943F0010313610180704760
:10289000801600200020024000201449CA68D30698
:1028A000134A04D5D06940F00200D0611020CB68F3
:1028B0005B0705D5D36943F00103D36140F0040001
:1028C000CB69DB0707D0D36943F00403D361CA693E
:1028D00022F00102CA61A0F58072013A01D0C860FD
:1028E0007047C86920F00100C861704700200240AD
:1028F0008016002070B5044600F020FF0546114EFA
:1029000009E0601C07D024B100F018FF401BA04272
:1029100001D9032070BDF068C007F2D1F0688006CD
:1029200001D52020F060F068C00605D4F069C0072A
:1029300002D1F068400703D5FFF7AEFF012070BD5C
:10294000002070BD0020024000B585B00021049138
:1029500000910121039100F10060029000F0B6FDAA
:1029600004A9684600F00EFD00F060FD05B000BD52
:1029700070B500F1006000240023012505EB52052D
:1029800009E030F8022B160ACE54CE187270641C7F
:10299000A4B29B1C9BB2AC42F3D370BD2DE9F041B5
:1029A00006460D46174600F091FD00240DE028195B
:1029B000295D407840EA0122311901F100610023CC
:1029C000012000F03DFDA41CA4B2BC42EFD3BDE841
:1029D000F04100F02BBD000010B50B480168001D50
:1029E0000468001D0068084400280BD0082207492D
:1029F00003F07FFA054920460422BDE8104010315B
:102A000003F077BA10BD0000E8F7FF1F4A0400206A
:102A1000F8B504460026009694F82400012809D051
:102A2000012084F824002046FEF7DEF8074638002F
:102A300002D060E00220F8BDA06A20F4885040F087
:102A40000200A062022001F09FFE2D490968B1FB3F
:102A5000F0F04000009002E00098401E00900098C6
:102A60000028F9D12046FEF723F92068816841F05B
:102A70000801816000F062FE054612E000F05EFE93
:102A8000401B0A280DD920688068000709D5A06A74
:102A900020F0020040F01000A06284F824600120C1
:102AA000F8BD206880680007E8D42068816841F09C
:102AB0000401816000F042FE054612E000F03EFE97
:102AC000401B0A280DD920688068400709D5A06AF4
:102AD00020F0020040F01000A06284F82460012081
:102AE000F8BD206880684007E8D4A06A20F00200A2
:102AF00040F00100A06284F824603846F8BD000070
:102B00008004002070470000F8B5002300250095E0
:102B100090F82420012A12D0012280F824204A684B
:102B20001F26072A0DD20468676B521E02EB820231
:102B30009640B7430E689640374367631AE0022019
:102B4000F8BD0D2A0BD20468276BD21F02EB82025C
:102B50009640B7430E689640374327630AE00468FF
:102B6000E76A0D3A02EB82029640B7430E68964040
:102B70003743E7620A6807260A2A0BD30468E76826
:102B80000A3A02EB42029640B7438E6896403743BA
:102B9000E76009E00468276902EB42029640B74308
:102BA0008E689640374327610A68102A01D0112A9F
:102BB00023D1144C0268A2421AD1946824021CD476
:102BC000946844F4000494600968102915D10E49F2
:102BD0000E4A0968B1FBF2F101EB81014900009155
:102BE00002E00099491E009100990029F9D104E002
:102BF000816A41F020018162012380F82450184647
:102C0000F8BD0000002401408004002040420F0075
:102C100003490968814201D1FEF730B970470000CD
:102C2000F00900207047704710B5044620684168DD
:102C3000890626D50168890723D5A16AC90603D468
:102C4000A16A41F40071A1628168C1F34241072980
:102C500010D1217B71B9416821F020014160A06A47
:102C600020F48070A062A06AC00403D4A06A40F07F
:102C70000100A0622046FFF7CBFF21686FF0120031
:102C800008602068416809062ED5016849072BD5E0
:102C9000A16AC90603D4A16A41F40051A162816806
:102CA000C1F30231072909D04168490515D481686B
:102CB000C1F34241072910D1217B71B9416821F04C
:102CC00080014160A06A20F48050A062A06AC00523
:102CD00003D4A06A40F00100A0622046FFF712FF73
:102CE00021686FF00C0008602068416849060DD526
:102CF0000068C0070AD0A06A40F48030A062204675
:102D000000F092F821686FF00100086010BD00002B
:102D10002DE9F041044600270025002C03D0A06ACD
:102D2000002618B108E00120BDE8F081E66284F8D1
:102D30002460204600F07AF82046FDF755FFA16A8E
:102D4000C90600D428B1A06A40F01000A06201209A
:102D5000EAE7A16A21F4885141F00201A1626268A8
:102D6000E169237B0A4347EA43010A43A1684FF420
:102D70008077B94208D0012906D0002194F814C008
:102D8000BCF1010F02D00AE03946F7E7F3B1A36ABC
:102D900043F02003A362E36A43F00103E362236884
:102DA000D3F804C02CF4694C4CEA010CC3F804C0FD
:102DB00021688B68DFF868C003EA0C0313438B605B
:102DC000A168B94209D0012907D009E0A3695B1EB7
:102DD00041EA433141F40061E1E7218A491E0D05D2
:102DE0002168CB6A23F470032B43CB622168896886
:102DF0000C4B1940914207D1E662A16A21F0020111
:102E000041F00101A1628FE7A06A20F0020040F0CA
:102E10001000A062E06A40F00100E062012083E758
:102E2000FDF7E1FFFE0E1FFF7047000070B586B092
:102E30000646002402940394049405941D493068C6
:102E4000884234D11C49886940F4007088618869DF
:102E500000F400700190886940F00400886188697E
:102E600000F00400019003200290039002A913488F
:102E700000F056FB134D124828606C60AC60802057
:102E8000E8608000286180006861AC61EC612846E0
:102E900000F0FAF908B1FFF7CBFC35626E62002250
:102EA0000521122000F030FF122000F01FFF06B0B5
:102EB00070BD0000002401400010024000080140E5
:102EC00008000240400600202DE9F04704468946EC
:102ED0009246DFF8008120683F4F08F10406404524
:102EE00001D0B84207D1306810F4702F03D001250B
:102EF0002846BDE8F08794F8240001280BD0012073
:102F000084F824002046FDF7D3FE0546002125B1B4
:102F100084F82410ECE70220EBE7A06A40F6016297
:102F2000904340F48070A0622068B84218D13268A3
:102F300012F4702F14D0A26A42F48012A262306898
:102F4000400505D5A06A20F4005040F48050A062EE
:102F5000A06AC00412D5E06A20F00600E0620EE02C
:102F6000A26A22F48012A26240684005F0D5A06AED
:102F700020F4005040F48050A062E9E7E16284F858
:102F80002410216A15488862216A1548C862216A9E
:102F90001448086321686FF00200086020688168A7
:102FA00041F480718160216853464C314A46206A61
:102FB00000F09CF920688168C1F34241072904D0E0
:102FC000816841F48011816092E7816841F4A00139
:102FD00081608DE700240140002801403D0C00087D
:102FE000A50C00088B0C000810B5044694F82400CA
:102FF000012807D0012084F824002046FDF7F4FDC5
:1030000010B113E0022010BD21688A6822F480729A
:103010008A60216A91F82120022A07D1084600F02F
:1030200010F838B1A16A41F04001A162002184F892
:10303000241010BDA16A21F4885141F00101A16260
:10304000F4E710B590F821100022022905D00421E0
:10305000816380F82020012010BD01680B6823F0F7
:103060000E030B6001680B6823F001030B6090F8FE
:103070004030C46B012101FA03F3636080F8211032
:1030800080F82020104610BD10B5002490F82110C3
:10309000022903D00421816301243DE001680A680C
:1030A00022F00E020A6001680A6822F001020A603A
:1030B0001A4A0168914201D1012121E0174A1432D4
:1030C000914201D110211BE0144A2832914201D1D2
:1030D000891515E0114A3C32914201D189140FE063
:1030E0000E4A5032914202D14FF4803108E00B4A2F
:1030F0006432914202D14FF4801101E04FF08071AF
:10310000064A083A5160012180F82110002180F818
:103110002010416B01B18847204610BD08000240D5
:103120002DE9F05FC16B0A6801680B68046C4FF011
:10313000040A0AFA04FA4E4D4E4E4F4FDFF83CC1D6
:10314000DFF83C81DFF83C911AEA020F31D05FEAE8
:10315000437A2ED50A68920603D40A6822F0040244
:103160000A600168A94201D1042119E0B14201D1EC
:10317000402115E0B94202D14FF4806110E0614571
:1031800002D14FF480410BE0414502D14FF4802140
:1031900006E0494502D14FF4800101E04FF0806123
:1031A000334A083A5160C16A00295FD0BDE8F05F38
:1031B00008474FF0020E0EFA04FE1EEA020F4FF00F
:1031C000000A4FF0010B35D05FEA837E32D50A68E2
:1031D000920605D40A6822F00A020A6080F821B03B
:1031E0000168A94201D1022119E0B14201D1202197
:1031F00015E0B94202D14FF4007110E0614502D1EF
:103200004FF400510BE0414502D14FF4003106E08C
:10321000494502D14FF4001101E04FF00071144A0A
:10322000083A516080F820A0816A00291ED0BDE8CC
:10323000F05F08470825A540154217D01A0715D595
:103240000A6822F00E020A6090F84010C26B0BFA76
:1032500001F15160C0F838B080F821B080F820A0AA
:10326000016B002902D0BDE8F05F0847BDE8F09F80
:10327000080002401C0002403000024044000240AE
:10328000580002406C00024030B5002827D0001DD5
:10329000144A50F8041C14230A44B2FBF3F29200BF
:1032A000C263114A8263022242770A6843F6F073CE
:1032B0009A43D0E900342343D0E902452C43234309
:1032C00004692343446923438469234313430B6004
:1032D00000214163012242770177002030BD0120A7
:1032E00030BD0000F8FFFDBF0000024070B504468D
:1032F000002594F8200001280CD0012084F820003B
:1033000094F821600020012E06D084F820000225C8
:10331000284670BD022070BD022684F82160A0639B
:103320002068066826F0010606602046FFF766FA68
:10333000E06A28B12068016841F00E01016009E0EF
:103340002068016821F0040101602068016841F0F3
:103350000A0101602068016841F001010160D7E7BE
:1033600070B5044600F0EAF90546601C02D0044836
:103370000078044400F0E2F9401BA042FAD370BD8B
:10338000740400202DE9F04705460F464FF0010A6E
:10339000DFF8908098F8180001280DD0012088F8F7
:1033A00018002868204E4CF25039022807D04846B1
:1033B000FFF7A0FA98B12FE00220BDE8F087484659
:1033C000FFF798FAF8B90120FFF734FA4846FFF7FB
:1033D00091FA8246306920F0040030611CE04FF021
:1033E000FF303860AC6811E02046FFF735FA4846F8
:1033F000FFF780FA8246306920F0020030615FEA10
:103400000A0001D03C6007E004F58064D5E90201C0
:1034100000EB8120A042E7D8002088F81800504631
:10342000CBE700008016002000200240034801691D
:1034300041F080010161002070470000002002403F
:103440002DE9F05F0746884615461E460024DFF842
:10345000749099F81800012809D0012089F8180003
:103460004CF2503B5846FFF745FA18B126E00220CF
:10347000BDE8F09F012F05D0022F05D00427DFF80B
:1034800048A019E00127FAE70227F8E722012846B9
:103490003146FCF7C4FE81B208EB4400FFF7EEF9B9
:1034A0005846FFF727FADAF8101021F00101CAF8A0
:1034B000101018B9641CE4B2BC42E7D3002189F8AB
:1034C0001810D5E780160020002002400020064991
:1034D0000A69120607D5054A4A60054A4A60096921
:1034E000090600D5012070470020024023016745EE
:1034F000AB89EFCD022803D102490F2081F8D60015
:10350000704700000809002010B504490A6802420B
:1035100002D00860FFF7EEFF10BD00001404014068
:103520002DE9F84F00240023DFF8C4914FF00F0875
:1035300009F1040A0AF1040B0BF1040ED1E0012792
:10354000A7403A40BA4275D1DFF8A8C14D68A5EB53
:103550000C0665452BD00DDC032D34D005DC35B3CE
:10356000012D19D0022D2FD11BE0112D16D0122DB7
:103570002AD119E0B6F5881F19D006DCB6F5803FD0
:1035800015D0B6F5801F1FD111E0B6F5001F0ED083
:10359000B6F5041F18D10AE0CB6815E0CB681B1DF7
:1035A00012E0CB6808330FE0CB680C330CE08B687B
:1035B00023B1012B04D00823476105E0042303E075
:1035C0000823076100E00023FF2A01D8054601E037
:1035D00000F1040502D84FEA840603E0A4F10806CE
:1035E0004FEA86062F6808FA06FC27EA0C0703FA5A
:1035F00006F647EA06072F604D68ED0070D53E4D90
:10360000AE6946F00106AE61AD6905F001050095B1
:103610003A4D24F003067719BE68A5072D0F08FA66
:1036200005FC26EA0C06DFF8D8C0604503D14FF050
:10363000000C17E054E0DFF8CCC0604502D14FF039
:10364000010C0FE0DFF8C0C0604502D14FF0020C62
:1036500008E0DFF8B8C0604502D14FF0030C01E08C
:103660004FF0040C0CFA05FC4CEA060CC7F808C035
:103670004D68ED0305D5D9F800501543C9F8005041
:1036800004E0D9F800509543C9F800504D68AD03E7
:1036900005D5DAF800501543CAF8005004E0DAF80E
:1036A00000509543CAF800504D68ED0205D5DBF88F
:1036B00000501543CBF8005004E0DBF80050954370
:1036C000CBF800504D68AD0205D5DEF8005015432B
:1036D000CEF8005004E0DEF800509543CEF80050DC
:1036E000641C0A6832FA04F57FF429AFBDE8F88F4C
:1036F00000040140000011100010024000000140D1
:1037000000080140000C014000100140001401407D
:103710008068084201D00120704700207047C268CD
:1037200021EA02030A4043EA024101617047002A8C
:1037300001D0016170470904016170470148806848
:10374000704700007404002070B50446002C04D0BB
:1037500094F83D00002510B106E0012070BD84F80A
:103760003C50204600F01CFA242084F83D002068DC
:10377000016821F0010101602068016841F4004105
:1037800001602068016821F40041016001F0B0F996
:103790004F4B6168994203D84E49884203D304E0F5
:1037A0004D49884201D2012070BD4C49B0FBF1F176
:1037B0002268566826F03F060E43566062689A42B9
:1037C00001D8491C07E04FF4967251434FF47A72C6
:1037D000B1FBF2F1491C2268166A26F03F0631431C
:1037E00011626168994210D84900401EB0FBF1F2A5
:1037F000521CC2F30B02042A01D2042022E0B0FBC7
:10380000F1F0401CC0F30B001CE0A268F2B301EB26
:10381000C10303EB0116431EB3FBF6F35B1C43F439
:1038200080431B0549D092B301EBC10202EB0111A9
:10383000401EB0FBF1F0401CC0F30B0040F4804090
:1038400040F400402168CA694CF6FF739A43104364
:10385000C861D4E9071001432068026822F0C00261
:1038600011430160D4E9030101432068826848F2F2
:10387000FF339A4311438160D4E905100143206866
:10388000C26822F0FF021143C16001E00EE016E0C1
:103890002068016841F0010101602564202084F85E
:1038A0003D00256384F83E50002070BD01EB4106C9
:1038B000431EB3FBF6F35B1CB3E70120C2E701EB49
:1038C0004101401EB0FBF1F0401CC0F30B00B7E714
:1038D000A086010080841E0000093D0040420F00C8
:1038E0002DE9FF4F81B004468B461F46FFF726FFA8
:1038F0000546012694F83D00202803D0022005B09B
:10390000BDE8F08F1923012251492046009502F0AD
:1039100038FA08B10220F2E794F83C00012807D0F9
:10392000012084F83C0020680168C90702D005E046
:103930000220E4E7016841F00101016020680168AC
:1039400021F400610160242084F83D004FF0000A5A
:10395000C4F840A03F48E0624FF0200920680168A9
:1039600041F4807101603B4600224FF00111204676
:10397000009502F006FA40B120680068C00502D543
:103980004FF4007020640320B9E721680BF0FE00BB
:103990000861FFF7D3FE054620684169C1F3400185
:1039A0004069C0F380204FF0A0080EE0FFF7C6FE8C
:1039B000401BB84200D80FB984F83D8020684169A7
:1039C000C1F340014069C0F3802094F83D20A02A53
:1039D00002D009B90028E9D084F83D9020684169F7
:1039E000C943890718D42168096841F4007101604E
:1039F00020684169806900901923012214492046FA
:103A0000009502F0BEF908B1012078E784F83D90F6
:103A100084F83CA0002072E7016841F40071016065
:103A200021686FF48060486119230122084920460B
:103A3000009502F0A6F908B1012060E7761C039812
:103A400086428BD384F83D9084F83CA0012056E751
:103A5000020010000000FFFF2DE9F84F04468A46DF
:103A600015469946DDF82880FFF768FE064694F86B
:103A70003D00202802D00220BDE8F88F1923012242
:103A800045492046009602F07CF908B10220F3E790
:103A900094F83C00012807D0012084F83C002068FD
:103AA0000168C90702D005E00220E5E7016841F09E
:103AB000010101602068016821F40061016021209A
:103AC00084F83D00102084F83E00002727646562DA
:103AD000A4F82A90608D20853048E0623346424643
:103AE0005146204602F0CEF808B10120C4E7206814
:103AF0004169806900903EE032464146204602F02E
:103B0000D1F948B1206C042804D12068016841F43F
:103B1000007101600120AFE7606A216800780861E8
:103B2000656A6D1C6562608D401E6085208D401E3B
:103B300080B2208522685169C94349070BD450B12E
:103B400028781061606A401C6062608D401E60854C
:103B5000208D401E208532464146204602F0EAF87C
:103B600048B1206C042804D12068016841F4007138
:103B70000160012080E7208D0028BDD11F3454F85A
:103B80001F0C016841F4007101602020A077E777E5
:103B90006777002070E70000020010000000FFFFC0
:103BA00010B586B00021029103910491059100683F
:103BB0000F4988421AD10F4CA06940F00800A0615B
:103BC000A06900F008000190C0200290122003902C
:103BD0000320059002A90848FFF7A2FCE06940F421
:103BE0000010E061E06900F40010019006B010BD23
:103BF0000054004000100240000C0140024881685F
:103C000002781144816070477404002010B50748A1
:103C1000016841F010010160032000F095F80F20C9
:103C200000F006F800F03EF8002010BD0020024031
:103C300000B587B001460022192000F065F8192070
:103C400000F054F81348816941F400618161806992
:103C500000F40060009001A902A800F025FF00F028
:103C600057FF0D49B0FBF1F1491E0D480B4A0260A8
:103C700040F2E732C260416000210161816001F0E1
:103C80001FFE10B1012007B000BD054801F070FE15
:103C9000F9E700000010024040420F00002C0140F4
:103CA0002C08002008B50F48816941F001018161AD
:103CB000816901F001010091C16941F08051C16148
:103CC000C06900F08050009000220F21901E00F08B
:103CD0001BF80549486820F0E06040F0007048603B
:103CE00008BD00000010024000000140002809DB70
:103CF00000F01F02012191404009800000F1E02006
:103D0000C0F8001170470000F0B40D460D4B1B6861
:103D1000C3F30223C3F10704042C00D90424191DA2
:103D2000072901D2002300E0DB1E012606FA04F178
:103D3000491E294099409E40761E16403143F0BCF2
:103D400006F038BF0CED00E000F00701054A1068EE
:103D50004FF6FF03184040EA012003490843106072
:103D6000704700000CED00E00000FA0510B50C06ED
:103D700007D501F0070101EB810100EBC1002830FC
:103D800005E001EB810100EBC10000F5B47099B2D0
:103D900032B1012202730181190C4181002010BD52
:103DA00000220273C180F9E7704701EB810200EB4A
:103DB000C202D0F8E802D26B05F0FFB901EB810234
:103DC00000EBC202D0F8E802D2F87C2105F060BA1C
:103DD00070B504460B0601F0070000EB800104EB10
:103DE000C1014FF001024FF0000502D528314A70A1
:103DF00002E001F5B4714D70087094F8A802012832
:103E000008D084F8A822206805F00DFF84F8A85295
:103E1000002070BD022070BD70B5044601F00F0097
:103E20006268904201D9012070BD0B0601F00700C5
:103E300000EB800104EBC1014FF001024FF00005DF
:103E400002D528314A7002E001F5B4714D708D70D1
:103E5000087094F8A802012808D084F8A8222068E5
:103E600005F093FF84F8A852002070BD022070BDB9
:103E70002DE9F05F0B788D6904685FEA424A4FF0E4
:103E8000000C4BF68F7948F2800848F68F7648F29E
:103E9000C0074FF4806E32D5B4F850A04FF0020B3B
:103EA0000BEBC30BDA440EEB4A0A34F80A40C4F3B6
:103EB0000904A54202D32D1B8D6101E0C1F818C091
:103EC0008D6955B9056835F823C00CEA090C8CF4E6
:103ED000005C4CEA080C25F823C0520607D50B7885
:103EE000026832F8235035403D4322F82350C4B3D2
:103EF0000A8949690068234606F05FFB31E0B4F89F
:103F000050A04FF0060B0BEBC30BDA440EEB4A0A42
:103F100034F80A40C4F30904A54202D32D1B8D6175
:103F200001E0C1F818C08D6955B9056835F823C09E
:103F30000CEA090C8CF4005C4CEA080C25F823C050
:103F4000520607D40B78026832F8235035403D43BF
:103F500022F823502CB14A8949690068234606F0AB
:103F60002CFB2046BDE8F09F2DE9F05F05460C468E
:103F700016462178A36928685FEA466A48F68F7773
:103F80004CF280084FF4806E4FF002094FF0060C9F
:103F90004FF0000272D5B0F850B009EBC10AD3441B
:103FA0000EEB4B0B30F80B00C0F30900834202D933
:103FB0001B1AA36100E0A261A36973B1730407D562
:103FC0002B6833F821603E4046EA080623F821605A
:103FD00094F82410012952D076E1607810B10128BC
:103FE00011D018E02868B0F85010084400EB4A00DF
:103FF00000F58060018821F4F8410180018841F4D6
:104000000041018007E02868B0F85010084400EB38
:104010004A00A0F800242868617811B1012913D062
:104020001CE0B0F85010084421780CEBC10100EB03
:10403000410000F58060018821F4F8410180018889
:1040400041F40041018009E0B0F8501008442178A3
:104050000CEBC10100EB4100A0F8002421782846B8
:10406000FFF7A3FE7004B7D52178286830F8212027
:104070003A4042EA080220F8212025E157E0616930
:1040800001446161E1690144E1612369216A994266
:1040900003D31846091A216204E041B184F82420B0
:1040A00008462262617829B101292ED038E084F8CF
:1040B0002420F7E72968B1F850201144227809EB51
:1040C000C20201EB420101F5806158B13E2812D8CD
:1040D0004208C30700D0521C4FF6FF7303EA822246
:1040E0000A801DE00A8822F4F8420A800A8842F415
:1040F00000420A8014E04209C30600D1521E4FF468
:10410000004343EA82220A800AE02968B1F850207D
:104110001144227809EBC20201EB4201A1F800042C
:1041200083B222896169286806F066FACCE0B0F8AB
:1041300050A00CEBC10BDA440EEB4A0A30F80A002F
:10414000C0F30900834202D31B1AA36100E0A261FD
:10415000A36973B1730407D42B6833F821603E4020
:1041600046EA080623F8216094F82410012955D066
:10417000AAE0607810B1012813D01CE02868B0F8DC
:104180005030184409EBC10100EB410000F580609C
:10419000018821F4F8410180018841F40041018047
:1041A00009E02868B0F85030184409EBC10100EB71
:1041B0004100A0F800242868617811B1012913D0CA
:1041C0001CE0B0F85010084421780CEBC10100EB62
:1041D000410000F58060018821F4F84101800188E8
:1041E00041F40041018009E0B0F850100844217802
:1041F0000CEBC10100EB4100A0F800242178284617
:10420000FFF7D3FD70045FD42178286830F82120AF
:104210003A4042EA080220F8212055E06169014451
:104220006161E1690144E1612369216A994203D333
:104230001846091A216204E049B10846226284F84E
:104240002420296862782AB1012A2DD036E084F82A
:104250002420F6E7B1F85020114422780CEBC2027A
:1042600001EB420101F5806158B13E2812D84208A5
:10427000C30700D0521C4FF6FF7303EA82220A8064
:104280001CE00A8822F4F8420A800A8842F40042BC
:104290000A8013E04209C30600D1521E4FF40043C6
:1042A00043EA82220A8009E0B1F8502011442278C2
:1042B0000CEBC20201EB4201A1F8000483B2628957
:1042C0006169286806F098F92078296831F820207B
:1042D00048F6BF731A4082F0100282F0200248F2C2
:1042E00080031A4321F820200020BDE8F09F01F050
:1042F000070101EB810100EBC100D0F88401704798
:104300002DE9F04104460F0601F0070000EB8001A3
:1043100004EBC1014FF001064FF0000502D5283132
:104320004E7002E001F5B4714D7008700A61CB70F7
:104330004A7802B1C881022B00D10D7194F8A8020D
:10434000012809D084F8A862206805F013FB2846EC
:1043500084F8A852BDE8F0810220FBE770B50D4655
:1043600005F0070404EB840100EBC10101F5B47111
:104370004A618B610022CA614A700C706A0704D0DE
:10438000006805F062FD002070BD006805F05DFD6D
:10439000F9E770B504460D46616805F007008842EC
:1043A00001D9012070BD29064FF000064FF001022F
:1043B00006D500EB800104EBC10128314A7006E00C
:1043C00005EB850104EBC10101F5B4714E708A70F3
:1043D000087094F8A802012807D084F8A822206861
:1043E00005F015FD680702D006E0022070BD04F557
:1043F0002C71206805F0C7FC84F8A862002070BD0D
:1044000070B50D4605F0070404EB840100EBC10113
:1044100028314A618B61012281F824200B6200233C
:10442000CB614A700C706A0704D0006805F00DFD7E
:10443000002070BD006805F008FDF9E71FB50446CF
:10444000206806F0B7F8000402D5204603F06AFCA5
:10445000206806F0AFF840050CD5206830F8441FFE
:1044600021F480610180204600F026F900212046D9
:1044700000F03DF9206806F09DF8400405D520685D
:1044800030F8441F21F480410180206806F092F842
:10449000800405D5206830F8441F21F400510180C4
:1044A000206806F087F8C00414D5206830F8401F53
:1044B00021F004010180206830F8401F21F008013C
:1044C0000180204600F00BF9206830F8441F21F4E9
:1044D00080510180206806F06DF800053ED500206F
:1044E00021686A4631F8203022F81030401CC0B2F2
:1044F0000828F7D331F8400F40F001000880206809
:1045000030F8401F21F0010101802068B0F844100C
:104510004905FBD530F8441F21F48061018000205B
:10452000236832F8101023F82010401CC0B208286D
:10453000F6D3206830F8401F41F008010180206860
:1045400030F8441F21F400610180206830F8401FDA
:1045500041F004010180204600F0FEF8206806F0DA
:1045600029F8800508D5206830F8441F21F400712F
:104570000180204600F0B7F8206806F01BF8C0055F
:1045800005D5206830F8441F21F4807101801FBDDB
:104590002DE9F04186B00446002C04D094F8A9021D
:1045A000002520B108E0012006B0BDE8F08184F8C4
:1045B000A852204600F05AF8032084F8A902206887
:1045C00005F0DAFB04F11001142288466846FBF777
:1045D00036FE94E80F0005F024FB022718B184F89A
:1045E000A9720120E0E70021206805F0FCFF00210E
:1045F00001260DE001EB810004EBC000283046707D
:104600000170C181C570056145618561491CC9B2F0
:1046100060688842EED800210DE001EB810004EBD8
:10462000C00000F5B47045700170C570056145614A
:104630008561491CC9B260688842EED8142241469F
:104640006846FBF7FCFD94E80F0005F08CFB18B101
:1046500084F8A9720120A7E784F8245084F8A9629D
:10466000206805F07EFB00209EE7000008B500688A
:104670000F4988421AD10F48C16941F40001C16154
:10468000C06900F400000090002205211320FFF70C
:104690003BFB1320FFF72AFB002205211420FFF724
:1046A00033FBBDE808401420FFF720BB08BD000025
:1046B000005C00400010024070B504460125A0686F
:1046C000022801D0FEF7B4F82946D4F8E80204F035
:1046D000C9FED4F8E802BDE8704004F084BED0F80A
:1046E000E80204F0A9BED0F8E80204F0AFBE10B5AD
:1046F000044694F8A80201280BD0012084F8A802EF
:1047000084F82410206805F070FF002084F8A802C7
:1047100010BD022010BDD0F8E82200F52C71104623
:1047200004F0ACBE10B5044694F8A802012810D0DD
:10473000012084F8A802206805F028FF0121204606
:10474000FFF732FB206805F00AFB002084F8A8027E
:1047500010BD022010BD000010B50446D4F8E802D8
:1047600004F0CBFEA069002804D00348016841F0A2
:104770000601016010BD000010ED00E001490120BC
:104780000862704700000E4210B586B001462AA0AC
:1047900090E81C00C068CDE90334029205902AA07D
:1047A000006801900020294C012922D0022939D02B
:1047B00010291CD161682268D20118D502A8C1F362
:1047C0008342805CC90309D5616801AAC1F34041F5
:1047D000515C1F4AB2FBF1F1484301E01D494843D7
:1047E0006168490203D440000321B0FBF1F006B038
:1047F00010BD216AC1F30122012A03D1890701D525
:10480000D003F4E7022A05D1616A890702D549F687
:104810004040ECE7032AEAD121688903E7D54FF24B
:104820002440E4E700F074F96168C1F38131491C68
:104830004900B0FBF1F0DAE70203040506070809B6
:104840000A0B0C0D0E0F10100102000000100240A8
:1048500000127A0000093D002DE9F8430446364D68
:104860002078C00754D04FF00008E869C00009D490
:10487000E86940F08050E861E86900F080500090FD
:104880004FF001082D4E3068C00512D4306840F456
:1048900080703060FEF752FF074607E0FEF74EFFDC
:1048A000C01B642802D90320BDE8F8833068C00526
:1048B000F4D5286A00F44070E8B1A18801F4407191
:1048C000814218D0286A20F440701D4901220A60F4
:1048D00000220A602862C0070DD0FEF72FFF0646AF
:1048E00006E0FEF72BFF801B642801D90320DBE7DD
:1048F000286A8007F5D5286A616820F4407008436B
:104900002862B8F1010F03D1E86920F08050E86116
:104910002078800705D56868A16820F440400843E6
:1049200068602078C00605D56868E16820F48000DA
:10493000084368600020B7E70010024000700040A4
:1049400040044242704700002DE9F04704460D46FE
:10495000002C17D0DFF83081D8F8000000F00700F5
:10496000A84211D2D8F8000020F007002843C8F868
:104970000000D8F8000000F00700A84204D0012091
:10498000BDE8F0870120FBE72068404E810712D583
:10499000400703D5706840F4E0607060207800073D
:1049A00003D5706840F4605070607068A16820F0B2
:1049B000F000084370602078C0072CD060680128A0
:1049C00006D0022809D0316889070BD40120D7E727
:1049D0003168890306D40120D2E73168890101D406
:1049E0000120CDE7716821F0030101437160FEF7FA
:1049F000A5FE074641F2883906E0FEF79FFEC01B80
:104A0000484501D90320BBE77068616800F00C00DD
:104A1000B0EB810FF1D1D8F8000000F00700A842F8
:104A20000ED9D8F8000020F007002843C8F800008D
:104A3000D8F8000000F00700A84201D001209FE74D
:104A40002078400705D57068E16820F4E0600843ED
:104A500070602078000706D57068216920F46050E6
:104A600040EAC100706000F063F87168084AC1F361
:104A70000311515CC8400749086007480068FFF708
:104A8000D7F800207CE70000002002400010024020
:104A900030C600088004002078040020014901206D
:104AA000C8647047000042420F2202600B4A5368FC
:104AB00003F003034360536803F0F003836053681B
:104AC00003F4E063C360526802F46052D2080261EA
:104AD0000348006800F007000860704700100240BB
:104AE0000020024001480068704700008004002058
:104AF00000B5FFF7F7FF04494968044AC1F30221F2
:104B0000515CC84000BD00000010024040C60008D3
:104B100000B5FFF7E7FF04494968044AC1F3C22121
:104B2000515CC84000BD00000010024040C60008B3
:104B300085B014A090E80E00C068CDE90223019171
:104B4000049014A000680090134B5968134801F0BA
:104B50000C02042A10D0082A0ED101A8C1F3834206
:104B6000805CC9030AD55968C1F340411DF80110A2
:104B70000A4A5043B0FBF1F005B07047084948437A
:104B8000FAE7000002030405060708090A0B0C0DEA
:104B90000E0F1010010200000010024000127A00F7
:104BA00000093D0010B5044CA068000603D5FFF7CE
:104BB000C9FE8020A07210BD001002402DE9F84F00
:104BC0000446002C0ED02078D84DC0075ED068680F
:104BD000C0F3810001280BD06868C0F3810002286F
:104BE00003D00CE00120BDE8F88F6868C00306D54B
:104BF000286880034AD56068A8BB0120F3E7606895
:104C0000B0F5803F11D0A8B1B0F5A02F1BD0286817
:104C100020F480302860286820F4802028606068B4
:104C200030B3FEF78BFD06461EE0286840F4803066
:104C30002860F4E7286820F480302860286820F491
:104C400080202860EBE7286840F4802028602868EE
:104C500040F480302860E2E7FEF770FD801B642896
:104C600002D90320BFE711E028688003F4D50DE0E6
:104C7000FEF764FD064606E0FEF760FD801B642833
:104C800001D90320AFE728688003F5D42078DFF846
:104C9000A08280074FF0010A4FF0000945D56868EF
:104CA00010F00C0F07D06868C0F38100022812D101
:104CB0006868C0030FD42868800704D520690128DC
:104CC00001D001208FE72868616920F0F80040EAF0
:104CD000C100286029E02069B8B1C8F800A0FEF73B
:104CE0002DFD064606E0FEF729FD801B022801D9AE
:104CF000032078E728688007F5D52868616920F0E7
:104D0000F80040EAC10028600FE0C8F80090FEF704
:104D100015FD064606E0FEF711FD801B022801D9AD
:104D2000032060E728688007F5D42078000726D59F
:104D30008048A16999B1C0F800A0FEF7FFFC0646C3
:104D400006E0FEF7FBFC801B022801D903204AE79E
:104D5000686A8007F5D5012003F07AF90FE0C0F802
:104D60000090FEF7EBFC064606E0FEF7E7FC801B32
:104D7000022801D9032036E7686A8007F5D4207835
:104D8000400771D50026E869C00008D4E86940F002
:104D90008050E861E86900F0805000900126DFF85B
:104DA00098B1DBF80000C00514D4DBF8000040F433
:104DB0008070CBF80000FEF7C1FC074606E0FEF766
:104DC000BDFCC01B642801D903200CE7DBF8000000
:104DD000C005F4D5E068012810D0A0B105281BD08B
:104DE000286A20F001002862286A20F00400286266
:104DF000E06828B3FEF7A2FC07461DE0286A40F0F1
:104E000001002862F4E7286A20F001002862286A7D
:104E100020F004002862EBE7286A40F004002862D2
:104E2000286A40F001002862E2E7FEF787FCC01B19
:104E3000642801D90320D6E6286A8007F5D50DE05D
:104E4000FEF77CFC074606E0FEF778FCC01B6428F2
:104E500001D90320C7E6286A8007F5D4012E03D1C3
:104E6000E86920F08050E861E069A0B36968C1F3A7
:104E70008101022946D0022805D0C8F86090FEF7CB
:104E80005DFC04463AE0C8F86090FEF757FC064621
:104E900006E0FEF753FC801B022801D90320A2E69E
:104EA00028688001F5D4206AB0F5803F05D1686894
:104EB000A16820F4003008436860D4E90801084381
:104EC000696821F4741108436860C8F860A0FEF7AF
:104ED00035FC044607E026E0FEF730FC001B022804
:104EE00001D903207FE628688001F5D51BE0FEF795
:104EF00025FC001B022801D9032074E628688001E4
:104F0000F5D410E001280CD06868226A00F48031E2
:104F1000914204D1616A00F47010884203D00120EC
:104F200061E601205FE600205DE60000001002401F
:104F3000000042428004424200700040024800EB00
:104F4000810091B201607047006C00402DE9F0478C
:104F500007460C469046002F07D034B138684068A9
:104F6000400704D50120BDE8F0870120FBE7384663
:104F700003F079F905464FF46160B5FBF0F1B5FB3C
:104F8000F0F200FB12533C22B3FBF2F36370B5FB6B
:104F9000F0F300FB1350B0FBF2F302FB1300A07020
:104FA000182936D31820B1FBF0F9B1FBF0F200FB61
:104FB00012102070384603F04FF9411C03D0A8426C
:104FC00001D9461B01E04FF0FF36A9EB091000EBB9
:104FD0004000C0EB001005EBC0152946384603F031
:104FE000D9F908B10120BEE7701C06D07119384606
:104FF00003F0B9F940B10120B5E73146384603F076
:10500000B2F908B10120AEE74946384603F058F836
:1050100000E02170B8F1000F0BD0207803F033F8D6
:105020002070607803F02FF86070A07803F02BF800
:10503000A070002097E7000070B50446002C03D054
:10504000607C002610B105E0012070BD267420466A
:1050500000F04CF802206074204600F0BDF80425F2
:1050600010B16574012070BD204603F080F810B1C6
:105070006574012070BD2068416821F0070141601E
:10508000A06820B11848016821F0010101601648AC
:10509000001F0168A26821F460711143016060681B
:1050A000411C04D10120FFF76FFB98B1401E21681D
:1050B0008A6822F00F0242EA10428A602168CA68B8
:1050C00060F30F02CA60204603F06BF828B16574E4
:1050D000012070BD6574012070BDE673012060730E
:1050E000A0736074002070BD306C004008B500688B
:1050F000084988420DD1FFF741FB0748C16941F0DB
:105100000061C161C06900F00060009003490120A6
:10511000086008BD00280040001002403C044242E4
:105120002DE9F04104460D46002C28D03DB3207CEB
:10513000012826D001262674022060741AB328782C
:1051400002F098FF4FF4616100FB01F7687802F00C
:1051500091FFC0EB001007EB8007A87802F08AFFF0
:105160003D182946204603F015F900274FF00408A2
:10517000A8B184F8118027740120BDE8F0810120D6
:10518000FBE70220F9E729784FF461604143687832
:10519000C0EB001001EB8000A9784518E1E720681A
:1051A000416821F005014160204603F055F8411C9B
:1051B0000CD0A8420AD207490144204603F0D3F894
:1051C00020B184F8118027740120D6E76674277413
:1051D0000020D2E78051010070B50446002C0AD0AF
:1051E0002068416821F008014160FEF7A7FA0546F2
:1051F0004FF47A7608E0012070BDFEF79FFA401B5D
:10520000B04201D9032070BD206840680007F4D582
:10521000002070BD7047000038B504462068426821
:105220008168C9434B060AD5CB0708D1D3435B0637
:1052300005D4216C01B02046BDE8304008478B07FB
:1052400008D4D3431B0605D4616C01B02046BDE8E9
:10525000304008478B0601D54B064AD4D3439B0602
:1052600047D44B060AD494F85130032B42D0636DD7
:1052700043F004036365C36883680093890609D417
:10528000616D41F00101616581680091016821F063
:1052900040010160606D00282BD02068416821F03A
:1052A000E0014160012084F8510002F0020002F0A8
:1052B0000101084322D02068416821F003014160C8
:1052C000104DE06C40B14563E06CFDF7DDFE18B1B8
:1052D000606D40F040006065A06C002809D0456317
:1052E000A06CFDF7D1FE002803D0606D40F04000B7
:1052F000606538BDC1688068009038BD2046FFF702
:1053000089FF38BD3585000870B50446002C09D0EA
:10531000606A002540B125616561A56294F851007D
:1053200040B10CE0012070BD6068B0F5827FF4D020
:10533000E561F2E784F85050204600F03FF8022083
:1053400084F851002068016821F040010160A088C4
:10535000218900F4827001F404410843A18901F419
:1053600000610843217C01F002010843217D01F026
:1053700001010843218B01F400710843217F01F0F2
:105380003801084394F8201001F080010843218D72
:1053900001F40051084321680860A069042101EA72
:1053A0001040216848602068C16921F40061C16132
:1053B0006565012084F85100002070BD30B585B0CE
:1053C000002401940294039404942B4D01682B480B
:1053D00002220323A9422AD1816941F480518161CB
:1053E000816901F480510091816941F0040181617A
:1053F000806900F004000090A020019002920493C4
:105400001F4D01A92846FEF78BF840210191029417
:10541000039401A92846FEF783F8002205212320E2
:10542000FEF772FC2320FEF761FC05B030BD154C81
:10543000A142FAD1C16941F48041C161C16901F45D
:1054400080410091816941F008018161806900F02B
:10545000080000904FF4204001900292049301A9AB
:105460000948FEF75DF8002205212420FEF74CFCD8
:105470002420FEF73BFCD8E700300140001002403A
:105480000008014000380040000C014070477047A0
:105490002DE9F84F04460A9E8A4693461F46012589
:1054A0004FF0000894F8500001280ED0012084F835
:1054B0005000FEF743F9814694F8510061680128D5
:1054C0000DD0B1F5827F07D102E00220BDE8F88F50
:1054D000A16809B9042802D04FF00208C3E0BAF16C
:1054E000000F28D0BBF1000F25D0380023D094F84E
:1054F0005100042802D0052084F851000020606586
:10550000C4F838B0E787A787C4F830A0E786A78635
:105510002064606420680168490603D4016841F092
:1055200040010160E068B0F5006F07D06068E8B343
:10553000012F48D07DE04FF0010894E0606808B189
:10554000012F39D1206B21680088C860206B801C36
:105550002063E08E401EE0862EE020688168890787
:105560000DD5E18E59B1012D09D1216B0988C1609A
:10557000206B801C2063E08E401EE08600252068A2
:105580008168C9070BD0E18F49B1C068A16B088061
:10559000A06B801CA063E08F401EE0870125FEF712
:1055A000CDF8A0EB0900B04206D300E00BE0701C80
:1055B00002D04FF0030856E0E08E0028CDD1E08FF6
:1055C0000028CAD13BE0206B216800780873206B6B
:1055D000401C2063E08E401EE0862AE0206881683F
:1055E00089070DD5E18E59B1012D09D1216B0978BB
:1055F0000173206B401C2063E08E401EE086002576
:1056000020688168C9070BD0E18F49B1C068A16BE0
:105610000870A06B401CA063E08F401EE08701254E
:10562000FEF78CF8A0EB0900B04201D3701C11D139
:1056300086B1E08E0028D1D1E08F0028CED14A4635
:105640003146204603F034F838B14FF001082020ED
:10565000606508E04FF0030805E0A06818B920680D
:10566000C168806800900120503460700020207074
:1056700040462BE72DE9F0410446002594F8500000
:1056800001280DD0012784F8507094F85100D4F807
:1056900004C0002601280FD0BCF5827F0AD102E0A9
:1056A0000220BDE8F081D4F808C0BCF1000F01D1A0
:1056B000042801D002256AE081B37AB373B394F869
:1056C0005100042802D0052084F85100666521634A
:1056D000A386E386A263A387E3872664666494F8BF
:1056E000510004281DD0E16C2B48C862E16C2B48A6
:1056F0008862E16C2A480863E06C4663E38F2168A6
:10570000A26B0C31E06CFDF7F1FD88B1606D40F0EB
:1057100010006065012584F8517038E0FFE701252D
:1057200035E0E16C1F48C862E16C1F488862E0E721
:105730002068416841F001014160A06CC662A06C24
:105740008662A06C0663A06C4663E38E2268216BC0
:105750000C32A06CFDF7CAFD38B1606D40F010004E
:105760006065012584F8517011E0206801684906E0
:1057700003D4016841F0400101602068416841F0B4
:10578000200141602068416841F00201416084F8D5
:105790005060284685E7000071850008E78500080D
:1057A00045850008678500087B850008F0B5002462
:1057B00090F85050012D0CD0012580F8505090F8F1
:1057C000515046680027012D0BD0B6F5827F06D1D7
:1057D00001E00220F0BD86680EB9042D01D002243C
:1057E0002AE0B1B1AAB1A3B190F85150042D02D072
:1057F000052580F85150476501638386C38682631F
:105800008387C387C16831B10D4901640D49416483
:1058100005E0012410E00C4901640C494164016871
:105820004A6842F0E0024A6001680A68520603D4FE
:105830000A6842F040020A6080F850702046F0BDCD
:10584000DD8300083D8400080D8400086D84000895
:10585000704770477047704770B590F83C20012A38
:1058600025D0012680F83C60022280F83D200268A5
:105870005468936824F070050C682C4354600D4CF8
:105880000268A24208D0B2F1804F05D00A4CA24271
:1058900002D00A4CA24204D123F080034968194384
:1058A00091603C30467000210170002070BD0220E4
:1058B00070BD0000002C01400004004000080040C2
:1058C00010B50446002C03D094F83D0010B107E059
:1058D000012010BD002084F83C00204600F016F89E
:1058E000022084F83D00211D206803F007F8012004
:1058F0003D3460726070A070E07020716071A071C2
:10590000E07120722070002010BD000008B5006812
:105910001549B0F1804F14D0144A904223D1C86980
:1059200040F00200C861C86900F002000090002247
:1059300005211D20FEF7E8F9BDE808401D20FEF70F
:10594000D5B9C86940F00100C861C86900F001001C
:105950000090002205211C20FEF7D6F9BDE8084082
:105960001C20FEF7C3B908BD00100240000400402F
:1059700090F83D10012901D001207047022180F8E4
:105980003D100168CA6842F00102CA6000680E4911
:10599000884208D0B0F1804F05D00C49884202D02F
:1059A0000B49884209D1816801F00701062908D016
:1059B000016841F00101016003E0016841F001016B
:1059C0000160002070470000002C014000040040EE
:1059D0000008004070B5044694F83C00012817D038
:1059E000012584F83C50022084F83D00206882683C
:1059F00022F0770222F47F4282600868502831D07A
:105A00000DDC20284DD005DCB0B310284ED148E085
:105A1000022070BD302844D0402847D137E06028AC
:105A20002BD0702806D0B0F5805F3FD0B0F5005F76
:105A30003CD10BE0CB68D1E90121206802F094FF52
:105A40002068816841F0770181602FE0CB68D1E95F
:105A50000121206802F088FF2068816841F48041BC
:105A6000816023E0CA684968206802F08FFF5021F6
:105A7000206802F083FF19E013E0CA6849682068D3
:105A800002F095FF6021206802F078FF0EE0CA68FE
:105A90004968206802F07AFF4021206802F06EFF1A
:105AA00004E022680146104602F068FF3C3465704D
:105AB0000020207070BD704770B5044620680169F1
:105AC0004FF00005C943890716D4C168C943890747
:105AD00012D4E91E016101202077206880698007C7
